{
  "_format": "hh-sol-artifact-1",
  "contractName": "SafeClubC",
  "sourceName": "contracts/SafeClubC.sol",
  "abi": [
    {
      "inputs": [],
      "stateMutability": "nonpayable",
      "type": "constructor"
    },
    {
      "inputs": [
        {
          "internalType": "address",
          "name": "owner",
          "type": "address"
        }
      ],
      "name": "OwnableInvalidOwner",
      "type": "error"
    },
    {
      "inputs": [
        {
          "internalType": "address",
          "name": "account",
          "type": "address"
        }
      ],
      "name": "OwnableUnauthorizedAccount",
      "type": "error"
    },
    {
      "inputs": [],
      "name": "ReentrancyGuardReentrantCall",
      "type": "error"
    },
    {
      "anonymous": false,
      "inputs": [
        {
          "indexed": false,
          "internalType": "uint256",
          "name": "id",
          "type": "uint256"
        }
      ],
      "name": "Cancelled",
      "type": "event"
    },
    {
      "anonymous": false,
      "inputs": [
        {
          "indexed": false,
          "internalType": "uint256",
          "name": "id",
          "type": "uint256"
        },
        {
          "indexed": false,
          "internalType": "address",
          "name": "recipient",
          "type": "address"
        },
        {
          "indexed": false,
          "internalType": "uint256",
          "name": "amount",
          "type": "uint256"
        }
      ],
      "name": "Executed",
      "type": "event"
    },
    {
      "anonymous": false,
      "inputs": [
        {
          "indexed": true,
          "internalType": "address",
          "name": "previousOwner",
          "type": "address"
        },
        {
          "indexed": true,
          "internalType": "address",
          "name": "newOwner",
          "type": "address"
        }
      ],
      "name": "OwnershipTransferred",
      "type": "event"
    },
    {
      "anonymous": false,
      "inputs": [
        {
          "indexed": false,
          "internalType": "uint256",
          "name": "id",
          "type": "uint256"
        },
        {
          "indexed": false,
          "internalType": "address",
          "name": "recipient",
          "type": "address"
        },
        {
          "indexed": false,
          "internalType": "uint256",
          "name": "amount",
          "type": "uint256"
        },
        {
          "indexed": false,
          "internalType": "string",
          "name": "description",
          "type": "string"
        },
        {
          "indexed": false,
          "internalType": "uint256",
          "name": "deadline",
          "type": "uint256"
        }
      ],
      "name": "ProposalCreated",
      "type": "event"
    },
    {
      "anonymous": false,
      "inputs": [
        {
          "indexed": false,
          "internalType": "uint256",
          "name": "id",
          "type": "uint256"
        },
        {
          "indexed": false,
          "internalType": "address",
          "name": "voter",
          "type": "address"
        },
        {
          "indexed": false,
          "internalType": "bool",
          "name": "support",
          "type": "bool"
        }
      ],
      "name": "Voted",
      "type": "event"
    },
    {
      "inputs": [
        {
          "internalType": "address",
          "name": "_account",
          "type": "address"
        }
      ],
      "name": "addMember",
      "outputs": [],
      "stateMutability": "nonpayable",
      "type": "function"
    },
    {
      "inputs": [
        {
          "internalType": "uint256",
          "name": "_id",
          "type": "uint256"
        }
      ],
      "name": "cancel",
      "outputs": [],
      "stateMutability": "nonpayable",
      "type": "function"
    },
    {
      "inputs": [
        {
          "internalType": "address payable",
          "name": "_recipient",
          "type": "address"
        },
        {
          "internalType": "uint256",
          "name": "_amount",
          "type": "uint256"
        },
        {
          "internalType": "string",
          "name": "_description",
          "type": "string"
        },
        {
          "internalType": "uint256",
          "name": "_durationSeconds",
          "type": "uint256"
        }
      ],
      "name": "createProposal",
      "outputs": [],
      "stateMutability": "nonpayable",
      "type": "function"
    },
    {
      "inputs": [],
      "name": "deposit",
      "outputs": [],
      "stateMutability": "payable",
      "type": "function"
    },
    {
      "inputs": [
        {
          "internalType": "uint256",
          "name": "_id",
          "type": "uint256"
        }
      ],
      "name": "execute",
      "outputs": [],
      "stateMutability": "nonpayable",
      "type": "function"
    },
    {
      "inputs": [
        {
          "internalType": "uint256",
          "name": "",
          "type": "uint256"
        },
        {
          "internalType": "address",
          "name": "",
          "type": "address"
        }
      ],
      "name": "hasVoted",
      "outputs": [
        {
          "internalType": "bool",
          "name": "",
          "type": "bool"
        }
      ],
      "stateMutability": "view",
      "type": "function"
    },
    {
      "inputs": [
        {
          "internalType": "address",
          "name": "",
          "type": "address"
        }
      ],
      "name": "isMember",
      "outputs": [
        {
          "internalType": "bool",
          "name": "",
          "type": "bool"
        }
      ],
      "stateMutability": "view",
      "type": "function"
    },
    {
      "inputs": [],
      "name": "memberCount",
      "outputs": [
        {
          "internalType": "uint256",
          "name": "",
          "type": "uint256"
        }
      ],
      "stateMutability": "view",
      "type": "function"
    },
    {
      "inputs": [
        {
          "internalType": "uint256",
          "name": "",
          "type": "uint256"
        }
      ],
      "name": "memberList",
      "outputs": [
        {
          "internalType": "address",
          "name": "",
          "type": "address"
        }
      ],
      "stateMutability": "view",
      "type": "function"
    },
    {
      "inputs": [],
      "name": "owner",
      "outputs": [
        {
          "internalType": "address",
          "name": "",
          "type": "address"
        }
      ],
      "stateMutability": "view",
      "type": "function"
    },
    {
      "inputs": [
        {
          "internalType": "uint256",
          "name": "",
          "type": "uint256"
        }
      ],
      "name": "proposals",
      "outputs": [
        {
          "internalType": "address payable",
          "name": "recipient",
          "type": "address"
        },
        {
          "internalType": "uint256",
          "name": "amount",
          "type": "uint256"
        },
        {
          "internalType": "string",
          "name": "description",
          "type": "string"
        },
        {
          "internalType": "uint256",
          "name": "deadline",
          "type": "uint256"
        },
        {
          "internalType": "uint256",
          "name": "yesVotes",
          "type": "uint256"
        },
        {
          "internalType": "uint256",
          "name": "noVotes",
          "type": "uint256"
        },
        {
          "internalType": "bool",
          "name": "executed",
          "type": "bool"
        },
        {
          "internalType": "bool",
          "name": "cancelled",
          "type": "bool"
        }
      ],
      "stateMutability": "view",
      "type": "function"
    },
    {
      "inputs": [],
      "name": "renounceOwnership",
      "outputs": [],
      "stateMutability": "nonpayable",
      "type": "function"
    },
    {
      "inputs": [
        {
          "internalType": "address",
          "name": "newOwner",
          "type": "address"
        }
      ],
      "name": "transferOwnership",
      "outputs": [],
      "stateMutability": "nonpayable",
      "type": "function"
    },
    {
      "inputs": [
        {
          "internalType": "uint256",
          "name": "_id",
          "type": "uint256"
        },
        {
          "internalType": "bool",
          "name": "support",
          "type": "bool"
        }
      ],
      "name": "vote",
      "outputs": [],
      "stateMutability": "nonpayable",
      "type": "function"
    },
    {
      "stateMutability": "payable",
      "type": "receive"
    }
  ],
  "bytecode": "0x608060405234801561001057600080fd5b50336001600081905550600073ffffffffffffffffffffffffffffffffffffffff168173ffffffffffffffffffffffffffffffffffffffff160361008c5760006040517f1e4fbdf700000000000000000000000000000000000000000000000000000000815260040161008391906101a8565b60405180910390fd5b61009b816100a160201b60201c565b506101c3565b6000600160009054906101000a900473ffffffffffffffffffffffffffffffffffffffff16905081600160006101000a81548173ffffffffffffffffffffffffffffffffffffffff021916908373ffffffffffffffffffffffffffffffffffffffff1602179055508173ffffffffffffffffffffffffffffffffffffffff168173ffffffffffffffffffffffffffffffffffffffff167f8be0079c531659141344cd1fd0a4f28419497f9722a3daafe3b4186f6b6457e060405160405180910390a35050565b600073ffffffffffffffffffffffffffffffffffffffff82169050919050565b600061019282610167565b9050919050565b6101a281610187565b82525050565b60006020820190506101bd6000830184610199565b92915050565b6124d8806101d26000396000f3fe6080604052600436106100e15760003560e01c8063a230c5241161007f578063ca6d56dc11610059578063ca6d56dc146102d0578063d0e30db0146102f9578063f2fde38b14610303578063fe0d94c11461032c576100e8565b8063a230c5241461022d578063b307fc6d1461026a578063c9d27afe146102a7576100e8565b806343859632116100bb5780634385963214610185578063715018a6146101c25780637d10707b146101d95780638da5cb5b14610202576100e8565b8063013cf08b146100ed57806311aee3801461013157806340e58ee51461015c576100e8565b366100e857005b600080fd5b3480156100f957600080fd5b50610114600480360381019061010f91906113ed565b610355565b604051610128989796959493929190611515565b60405180910390f35b34801561013d57600080fd5b5061014661046f565b604051610153919061159a565b60405180910390f35b34801561016857600080fd5b50610183600480360381019061017e91906113ed565b61047c565b005b34801561019157600080fd5b506101ac60048036038101906101a791906115f3565b6105a6565b6040516101b99190611633565b60405180910390f35b3480156101ce57600080fd5b506101d76105d5565b005b3480156101e557600080fd5b5061020060048036038101906101fb91906116df565b6105e9565b005b34801561020e57600080fd5b50610217610967565b6040516102249190611776565b60405180910390f35b34801561023957600080fd5b50610254600480360381019061024f9190611791565b610991565b6040516102619190611633565b60405180910390f35b34801561027657600080fd5b50610291600480360381019061028c91906113ed565b6109b1565b60405161029e9190611776565b60405180910390f35b3480156102b357600080fd5b506102ce60048036038101906102c991906117ea565b6109f0565b005b3480156102dc57600080fd5b506102f760048036038101906102f29190611791565b610cc1565b005b610301610e83565b005b34801561030f57600080fd5b5061032a60048036038101906103259190611791565b610e85565b005b34801561033857600080fd5b50610353600480360381019061034e91906113ed565b610f0b565b005b6004818154811061036557600080fd5b90600052602060002090600702016000915090508060000160009054906101000a900473ffffffffffffffffffffffffffffffffffffffff16908060010154908060020180546103b490611859565b80601f01602080910402602001604051908101604052809291908181526020018280546103e090611859565b801561042d5780601f106104025761010080835404028352916020019161042d565b820191906000526020600020905b81548152906001019060200180831161041057829003601f168201915b5050505050908060030154908060040154908060050154908060060160009054906101000a900460ff16908060060160019054906101000a900460ff16905088565b6000600380549050905090565b610484611208565b60006004828154811061049a5761049961188a565b5b906000526020600020906007020190508060060160009054906101000a900460ff16156104fc576040517f08c379a00000000000000000000000000000000000000000000000000000000081526004016104f390611905565b60405180910390fd5b8060060160019054906101000a900460ff161561054e576040517f08c379a000000000000000000000000000000000000000000000000000000000815260040161054590611971565b60405180910390fd5b60018160060160016101000a81548160ff0219169083151502179055507fc41d93b8bfbf9fd7cf5bfe271fd649ab6a6fec0ea101c23b82a2a28eca2533a98260405161059a919061159a565b60405180910390a15050565b60056020528160005260406000206020528060005260406000206000915091509054906101000a900460ff1681565b6105dd611208565b6105e7600061128f565b565b600260003373ffffffffffffffffffffffffffffffffffffffff1673ffffffffffffffffffffffffffffffffffffffff16815260200190815260200160002060009054906101000a900460ff16610675576040517f08c379a000000000000000000000000000000000000000000000000000000000815260040161066c906119dd565b60405180910390fd5b600073ffffffffffffffffffffffffffffffffffffffff168573ffffffffffffffffffffffffffffffffffffffff16036106e4576040517f08c379a00000000000000000000000000000000000000000000000000000000081526004016106db90611a49565b60405180910390fd5b60008111610727576040517f08c379a000000000000000000000000000000000000000000000000000000000815260040161071e90611ab5565b60405180910390fd5b8347101561076a576040517f08c379a000000000000000000000000000000000000000000000000000000000815260040161076190611b21565b60405180910390fd5b60046040518061010001604052808773ffffffffffffffffffffffffffffffffffffffff16815260200186815260200185858080601f016020809104026020016040519081016040528093929190818152602001838380828437600081840152601f19601f82011690508083019250505050505050815260200183426107f09190611b70565b8152602001600081526020016000815260200160001515815260200160001515815250908060018154018082558091505060019003906000526020600020906007020160009091909190915060008201518160000160006101000a81548173ffffffffffffffffffffffffffffffffffffffff021916908373ffffffffffffffffffffffffffffffffffffffff1602179055506020820151816001015560408201518160020190816108a29190611d7f565b50606082015181600301556080820151816004015560a0820151816005015560c08201518160060160006101000a81548160ff02191690831515021790555060e08201518160060160016101000a81548160ff02191690831515021790555050507f7d7c160743ad71943eeebe651bc4c5454aa42da293805baa96a623e316f11f4b60016004805490506109369190611e51565b8686868686426109469190611b70565b60405161095896959493929190611f16565b60405180910390a15050505050565b6000600160009054906101000a900473ffffffffffffffffffffffffffffffffffffffff16905090565b60026020528060005260406000206000915054906101000a900460ff1681565b600381815481106109c157600080fd5b906000526020600020016000915054906101000a900473ffffffffffffffffffffffffffffffffffffffff1681565b600260003373ffffffffffffffffffffffffffffffffffffffff1673ffffffffffffffffffffffffffffffffffffffff16815260200190815260200160002060009054906101000a900460ff16610a7c576040517f08c379a0000000000000000000000000000000000000000000000000000000008152600401610a73906119dd565b60405180910390fd5b600060048381548110610a9257610a9161188a565b5b906000526020600020906007020190508060060160019054906101000a900460ff1615610af4576040517f08c379a0000000000000000000000000000000000000000000000000000000008152600401610aeb90611fbe565b60405180910390fd5b80600301544210610b3a576040517f08c379a0000000000000000000000000000000000000000000000000000000008152600401610b319061202a565b60405180910390fd5b6005600084815260200190815260200160002060003373ffffffffffffffffffffffffffffffffffffffff1673ffffffffffffffffffffffffffffffffffffffff16815260200190815260200160002060009054906101000a900460ff1615610bd8576040517f08c379a0000000000000000000000000000000000000000000000000000000008152600401610bcf90612096565b60405180910390fd5b60016005600085815260200190815260200160002060003373ffffffffffffffffffffffffffffffffffffffff1673ffffffffffffffffffffffffffffffffffffffff16815260200190815260200160002060006101000a81548160ff0219169083151502179055508115610c6657806004016000815480929190610c5c906120b6565b9190505550610c81565b806005016000815480929190610c7b906120b6565b91905055505b7ff2913dbe661ee2acc4a046d8fbcdc792373bda34c41c6086484b5345e5785e5f833384604051610cb4939291906120fe565b60405180910390a1505050565b610cc9611208565b600073ffffffffffffffffffffffffffffffffffffffff168173ffffffffffffffffffffffffffffffffffffffff1603610d38576040517f08c379a0000000000000000000000000000000000000000000000000000000008152600401610d2f90612181565b60405180910390fd5b600260008273ffffffffffffffffffffffffffffffffffffffff1673ffffffffffffffffffffffffffffffffffffffff16815260200190815260200160002060009054906101000a900460ff1615610dc5576040517f08c379a0000000000000000000000000000000000000000000000000000000008152600401610dbc906121ed565b60405180910390fd5b6001600260008373ffffffffffffffffffffffffffffffffffffffff1673ffffffffffffffffffffffffffffffffffffffff16815260200190815260200160002060006101000a81548160ff0219169083151502179055506003819080600181540180825580915050600190039060005260206000200160009091909190916101000a81548173ffffffffffffffffffffffffffffffffffffffff021916908373ffffffffffffffffffffffffffffffffffffffff16021790555050565b565b610e8d611208565b600073ffffffffffffffffffffffffffffffffffffffff168173ffffffffffffffffffffffffffffffffffffffff1603610eff5760006040517f1e4fbdf7000000000000000000000000000000000000000000000000000000008152600401610ef69190611776565b60405180910390fd5b610f088161128f565b50565b610f13611355565b600060048281548110610f2957610f2861188a565b5b906000526020600020906007020190508060060160019054906101000a900460ff1615610f8b576040517f08c379a0000000000000000000000000000000000000000000000000000000008152600401610f8290612259565b60405180910390fd5b8060060160009054906101000a900460ff1615610fdd576040517f08c379a0000000000000000000000000000000000000000000000000000000008152600401610fd490611905565b60405180910390fd5b8060030154421015611024576040517f08c379a000000000000000000000000000000000000000000000000000000000815260040161101b906122c5565b60405180910390fd5b600061102e61046f565b905060008111611073576040517f08c379a000000000000000000000000000000000000000000000000000000000815260040161106a90612331565b60405180910390fd5b80600283600401546110859190612351565b116110c5576040517f08c379a00000000000000000000000000000000000000000000000000000000081526004016110bc906123df565b60405180910390fd5b816001015447101561110c576040517f08c379a00000000000000000000000000000000000000000000000000000000081526004016111039061244b565b60405180910390fd5b60018260060160006101000a81548160ff0219169083151502179055508160000160009054906101000a900473ffffffffffffffffffffffffffffffffffffffff1673ffffffffffffffffffffffffffffffffffffffff166108fc83600101549081150290604051600060405180830381858888f19350505050158015611197573d6000803e3d6000fd5b507f12c8907d32b752d626a36cf18f31719e25f1a3b6f750ee948c22c036373d48aa838360000160009054906101000a900473ffffffffffffffffffffffffffffffffffffffff1684600101546040516111f39392919061246b565b60405180910390a1505061120561139b565b50565b6112106113a5565b73ffffffffffffffffffffffffffffffffffffffff1661122e610967565b73ffffffffffffffffffffffffffffffffffffffff161461128d576112516113a5565b6040517f118cdaa70000000000000000000000000000000000000000000000000000000081526004016112849190611776565b60405180910390fd5b565b6000600160009054906101000a900473ffffffffffffffffffffffffffffffffffffffff16905081600160006101000a81548173ffffffffffffffffffffffffffffffffffffffff021916908373ffffffffffffffffffffffffffffffffffffffff1602179055508173ffffffffffffffffffffffffffffffffffffffff168173ffffffffffffffffffffffffffffffffffffffff167f8be0079c531659141344cd1fd0a4f28419497f9722a3daafe3b4186f6b6457e060405160405180910390a35050565b600260005403611391576040517f3ee5aeb500000000000000000000000000000000000000000000000000000000815260040160405180910390fd5b6002600081905550565b6001600081905550565b600033905090565b600080fd5b600080fd5b6000819050919050565b6113ca816113b7565b81146113d557600080fd5b50565b6000813590506113e7816113c1565b92915050565b600060208284031215611403576114026113ad565b5b6000611411848285016113d8565b91505092915050565b600073ffffffffffffffffffffffffffffffffffffffff82169050919050565b60006114458261141a565b9050919050565b6114558161143a565b82525050565b611464816113b7565b82525050565b600081519050919050565b600082825260208201905092915050565b60005b838110156114a4578082015181840152602081019050611489565b60008484015250505050565b6000601f19601f8301169050919050565b60006114cc8261146a565b6114d68185611475565b93506114e6818560208601611486565b6114ef816114b0565b840191505092915050565b60008115159050919050565b61150f816114fa565b82525050565b60006101008201905061152b600083018b61144c565b611538602083018a61145b565b818103604083015261154a81896114c1565b9050611559606083018861145b565b611566608083018761145b565b61157360a083018661145b565b61158060c0830185611506565b61158d60e0830184611506565b9998505050505050505050565b60006020820190506115af600083018461145b565b92915050565b60006115c08261141a565b9050919050565b6115d0816115b5565b81146115db57600080fd5b50565b6000813590506115ed816115c7565b92915050565b6000806040838503121561160a576116096113ad565b5b6000611618858286016113d8565b9250506020611629858286016115de565b9150509250929050565b60006020820190506116486000830184611506565b92915050565b6116578161143a565b811461166257600080fd5b50565b6000813590506116748161164e565b92915050565b600080fd5b600080fd5b600080fd5b60008083601f84011261169f5761169e61167a565b5b8235905067ffffffffffffffff8111156116bc576116bb61167f565b5b6020830191508360018202830111156116d8576116d7611684565b5b9250929050565b6000806000806000608086880312156116fb576116fa6113ad565b5b600061170988828901611665565b955050602061171a888289016113d8565b945050604086013567ffffffffffffffff81111561173b5761173a6113b2565b5b61174788828901611689565b9350935050606061175a888289016113d8565b9150509295509295909350565b611770816115b5565b82525050565b600060208201905061178b6000830184611767565b92915050565b6000602082840312156117a7576117a66113ad565b5b60006117b5848285016115de565b91505092915050565b6117c7816114fa565b81146117d257600080fd5b50565b6000813590506117e4816117be565b92915050565b60008060408385031215611801576118006113ad565b5b600061180f858286016113d8565b9250506020611820858286016117d5565b9150509250929050565b7f4e487b7100000000000000000000000000000000000000000000000000000000600052602260045260246000fd5b6000600282049050600182168061187157607f821691505b6020821081036118845761188361182a565b5b50919050565b7f4e487b7100000000000000000000000000000000000000000000000000000000600052603260045260246000fd5b7f416c726561647920657865637574656400000000000000000000000000000000600082015250565b60006118ef601083611475565b91506118fa826118b9565b602082019050919050565b6000602082019050818103600083015261191e816118e2565b9050919050565b7f416c72656164792063616e63656c6c6564000000000000000000000000000000600082015250565b600061195b601183611475565b915061196682611925565b602082019050919050565b6000602082019050818103600083015261198a8161194e565b9050919050565b7f4e6f742061206d656d6265720000000000000000000000000000000000000000600082015250565b60006119c7600c83611475565b91506119d282611991565b602082019050919050565b600060208201905081810360008301526119f6816119ba565b9050919050565b7f5a65726f20726563697069656e74000000000000000000000000000000000000600082015250565b6000611a33600e83611475565b9150611a3e826119fd565b602082019050919050565b60006020820190508181036000830152611a6281611a26565b9050919050565b7f4475726174696f6e206d757374206265203e2030000000000000000000000000600082015250565b6000611a9f601483611475565b9150611aaa82611a69565b602082019050919050565b60006020820190508181036000830152611ace81611a92565b9050919050565b7f547265617375727920746f6f20736d616c6c0000000000000000000000000000600082015250565b6000611b0b601283611475565b9150611b1682611ad5565b602082019050919050565b60006020820190508181036000830152611b3a81611afe565b9050919050565b7f4e487b7100000000000000000000000000000000000000000000000000000000600052601160045260246000fd5b6000611b7b826113b7565b9150611b86836113b7565b9250828201905080821115611b9e57611b9d611b41565b5b92915050565b7f4e487b7100000000000000000000000000000000000000000000000000000000600052604160045260246000fd5b60008190508160005260206000209050919050565b60006020601f8301049050919050565b600082821b905092915050565b600060088302611c357fffffffffffffffffffffffffffffffffffffffffffffffffffffffffffffffff82611bf8565b611c3f8683611bf8565b95508019841693508086168417925050509392505050565b6000819050919050565b6000611c7c611c77611c72846113b7565b611c57565b6113b7565b9050919050565b6000819050919050565b611c9683611c61565b611caa611ca282611c83565b848454611c05565b825550505050565b600090565b611cbf611cb2565b611cca818484611c8d565b505050565b5b81811015611cee57611ce3600082611cb7565b600181019050611cd0565b5050565b601f821115611d3357611d0481611bd3565b611d0d84611be8565b81016020851015611d1c578190505b611d30611d2885611be8565b830182611ccf565b50505b505050565b600082821c905092915050565b6000611d5660001984600802611d38565b1980831691505092915050565b6000611d6f8383611d45565b9150826002028217905092915050565b611d888261146a565b67ffffffffffffffff811115611da157611da0611ba4565b5b611dab8254611859565b611db6828285611cf2565b600060209050601f831160018114611de95760008415611dd7578287015190505b611de18582611d63565b865550611e49565b601f198416611df786611bd3565b60005b82811015611e1f57848901518255600182019150602085019450602081019050611dfa565b86831015611e3c5784890151611e38601f891682611d45565b8355505b6001600288020188555050505b505050505050565b6000611e5c826113b7565b9150611e67836113b7565b9250828203905081811115611e7f57611e7e611b41565b5b92915050565b6000611ea0611e9b611e968461141a565b611c57565b61141a565b9050919050565b6000611eb282611e85565b9050919050565b6000611ec482611ea7565b9050919050565b611ed481611eb9565b82525050565b82818337600083830152505050565b6000611ef58385611475565b9350611f02838584611eda565b611f0b836114b0565b840190509392505050565b600060a082019050611f2b600083018961145b565b611f386020830188611ecb565b611f45604083018761145b565b8181036060830152611f58818587611ee9565b9050611f67608083018461145b565b979650505050505050565b7f50726f706f73616c2063616e63656c6c65640000000000000000000000000000600082015250565b6000611fa8601283611475565b9150611fb382611f72565b602082019050919050565b60006020820190508181036000830152611fd781611f9b565b9050919050565b7f566f74696e6720636c6f73656400000000000000000000000000000000000000600082015250565b6000612014600d83611475565b915061201f82611fde565b602082019050919050565b6000602082019050818103600083015261204381612007565b9050919050565b7f416c726561647920766f74656400000000000000000000000000000000000000600082015250565b6000612080600d83611475565b915061208b8261204a565b602082019050919050565b600060208201905081810360008301526120af81612073565b9050919050565b60006120c1826113b7565b91507fffffffffffffffffffffffffffffffffffffffffffffffffffffffffffffffff82036120f3576120f2611b41565b5b600182019050919050565b6000606082019050612113600083018661145b565b6121206020830185611767565b61212d6040830184611506565b949350505050565b7f5a65726f20616464726573730000000000000000000000000000000000000000600082015250565b600061216b600c83611475565b915061217682612135565b602082019050919050565b6000602082019050818103600083015261219a8161215e565b9050919050565b7f416c7265616479206d656d626572000000000000000000000000000000000000600082015250565b60006121d7600e83611475565b91506121e2826121a1565b602082019050919050565b60006020820190508181036000830152612206816121ca565b9050919050565b7f43616e63656c6c65642070726f706f73616c0000000000000000000000000000600082015250565b6000612243601283611475565b915061224e8261220d565b602082019050919050565b6000602082019050818103600083015261227281612236565b9050919050565b7f566f74696e67207374696c6c2061637469766500000000000000000000000000600082015250565b60006122af601383611475565b91506122ba82612279565b602082019050919050565b600060208201905081810360008301526122de816122a2565b9050919050565b7f4e6f206d656d6265727320657869737400000000000000000000000000000000600082015250565b600061231b601083611475565b9150612326826122e5565b602082019050919050565b6000602082019050818103600083015261234a8161230e565b9050919050565b600061235c826113b7565b9150612367836113b7565b9250828202612375816113b7565b9150828204841483151761238c5761238b611b41565b5b5092915050565b7f4e6f74206d616a6f7269747920617070726f76616c0000000000000000000000600082015250565b60006123c9601583611475565b91506123d482612393565b602082019050919050565b600060208201905081810360008301526123f8816123bc565b9050919050565b7f4e6f7420656e6f7567682066756e647300000000000000000000000000000000600082015250565b6000612435601083611475565b9150612440826123ff565b602082019050919050565b6000602082019050818103600083015261246481612428565b9050919050565b6000606082019050612480600083018661145b565b61248d6020830185611ecb565b61249a604083018461145b565b94935050505056fea264697066735822122049e5b9844d2d8a09bd9191ad4609660f3ec13354c2c8f278aa08828247a9274c64736f6c634300081c0033",
  "linkReferences": {},
  "deployedLinkReferences": {}
}